:020000040800F2
:100000001008002095020008CB2F0008792900086D
:10001000C92F0008B70C0008F142000800000000DA
:10002000000000000000000000000000E3320008B3
:10003000B90C000800000000CD2F0008E5320008D0
:10004000AF020008AF020008AF020008AF020008CC
:10005000AF020008AF020008AF020008AF020008BC
:10006000AF020008AF020008AF020008AF020008AC
:10007000AF020008AF020008AF020008AF0200089C
:10008000AF02000800000000AF020008AF02000845
:10009000AF020008AF020008AF020008AF0200087C
:1000A000AF020008AF020008AF020008AF0200086C
:1000B000AF020008AF02000861330008AF02000879
:1000C000AF020008AF020008AF020008AF0200084C
:1000D000AF020008E5420008AF020008AF020008C6
:1000E000AF020008AF020008AF020008AF0200082C
:1000F000AF020008AF020008AF02000800000000D5
:1001000000000000AF02000800000000AF0200087D
:10011000AF02000800000000AF020008AF020008B4
:10012000AF020008AF020008AF020008AF020008EB
:10013000AF0200080000000000000000AF0200084D
:10014000AF020008AF02000800000000000000003D
:10015000000000000000000000000000000000009F
:10016000000000000000000000000000AF020008D6
:10017000AF020008000000000000000000000000C6
:1001800000000000AF0200080000000000000000B6
:10019000000000000000000000000000000000005F
:1001A0000000000000000000AF020008AF020008DD
:1001B000AF020008AF020008AF0200080000000014
:1001C00000000000AF020008000000000000000076
:1001D000AF020008AF02000800F002F800F04AF891
:1001E0000AA090E8000C82448344AAF10107DA4592
:1001F00001D100F03FF8AFF2090EBAE80F0013F09A
:10020000010F18BFFB1A43F001031847C057000045
:10021000E0570000103A24BF78C878C1FAD85207D6
:1002200024BF30C830C144BF04680C607047000070
:100230000023002400250026103A28BF78C1FBD8EF
:10024000520728BF30C148BF0B607047642900F0D7
:100250000181002070471FB504F0AAFA00F0E0FC0D
:1002600004000020002104F08DFA401C60601FBDD6
:1002700010B510BD00F098FC1146FFF7ECFF04F03C
:1002800052F900F0BFFC03B4FFF7F2FF03BC00F02B
:10029000CBFC00000948804709480047FEE7FEE71D
:1002A000FEE7FEE7FEE7FEE7FEE7FEE7FEE7FEE726
:1002B00004480549054A064B7047000051330008C1
:1002C000D9010008100200201008002010040020AE
:1002D0001004002053EA020C00F069802DE9F04B75
:1002E0004FF00006002B1FBFB3FA83F503FA05F4A5
:1002F00024FA05F65E4012BF1643B2FA82F502FAFE
:1003000005F4C5F120051EBF22FA05FC44EA0C04E1
:10031000203556EA044C4FEA144418BF641C4FF0D1
:1003200000084FF00009904271EB030C39D300290B
:1003300019BFB1FA81F701FA07F6B0FA80F700FAAF
:1003400007F6C7F120071EBF20FA07FC46EA0C0695
:100350002037B6FBF4FCA7EB0507103F07F01F0B97
:10036000CBF120060CFA0BFB2CFA06F644BFB34681
:100370000026202FA4BF5E464FF0000B5BEA060C60
:1003800008BF4FF0010B19EB0B09ABFB027C48EBEC
:100390000608C01B06FB02CC0BFB03CC71EB0C0167
:1003A000C1E70B46024641464846BDE8F08B13B50F
:1003B0004FF000004FF00001AFF30080BDE81C409B
:1003C000704700000FB41CB5074B06AA7B44694672
:1003D0000090059800F0C7F90020694600F0D6F9B2
:1003E0001CBC5DF814FB0000BD0300002DE9F041CA
:1003F0000E460446002020622046E168884730B35C
:10040000252805D0D4E901219047206A401CF2E755
:10041000E168204600278847050018D0A5F1410073
:10042000192802D820354FF4006732462946204665
:100430002760FFF70BFF40B1012804D0F61D26F01E
:1004400007060836D8E7361DD6E72846DAE7206AD9
:10045000BDE8F0812DE9F0410646002410687529B9
:10046000314616A510D0AFF30080002802DA4042D2
:1004700013A507E031688A0701D512A502E04907F4
:1004800004D511A5012401E0AFF3008000210A2268
:1004900006F1240709E0B0FBF2FCB0FBF2F302FB2B
:1004A0001C00303078541846491C0028F3D12346EC
:1004B0002A463046BDE8F04100F0F6B800000000E2
:1004C0002D0000002B000000200000000FB400B53C
:1004D0008DB010A9099000910B904FF0FF300A9059
:1004E00000200C90064878440690064878446A46F6
:1004F00007900F9909A800F063F90DB05DF814FB9F
:10050000F70200000F0300002DE9FF5F1D464FF0CA
:10051000FF3B91464FF000085F46D5E90146A969C7
:1005200001987F1C8847296A824688470028F6D1AF
:10053000BAF1FF3F0CD0002E24F4C06419DD600630
:1005400014D5BAF12B0F09D0BAF12D0F0ED103E05B
:10055000584604B0BDE8F09F44F48064A96901984E
:100560007F1C8847761E8246002E02DDBAF1300FCE
:1005700003D0B9F1000F26D032E0A969761E0198A8
:100580007F1C44F400748847002E824605DDBAF1D2
:10059000780F06D0BAF1580F03D0B9F1000F10D080
:1005A0001EE0B9F1000F02D0B9F1100F18D1A969FE
:1005B000761E01987F1C24F4007488478246102020
:1005C00002E0082000E00A20814609E0A96908FB52
:1005D0000908761E01987F1C44F4007488478246FF
:1005E000002E05DD4946504600F0D5F80028EDDA2A
:1005F000E96901988847A00502D46FF00100A8E7D7
:10060000E00725D1600613D5600502D5C8F10000CA
:1006100000E0404629680A1D2A600968220501D5C4
:10062000087015E0220701D5088011E008600FE08E
:100630002868011D29600068210502D580F8008026
:1006400006E0210702D5A0F8008001E0C0F8008094
:1006500038467EE74FF0000200B5134694469646B2
:10066000203922BFA0E80C50A0E80C50B1F12001C5
:10067000BFF4F7AF090728BFA0E80C5048BF0CC073
:100680005DF804EB890028BF40F8042B08BF7047D1
:1006900048BF20F8022B11F0804F18BF00F8012B43
:1006A00070477047704770472DE9F0470D469946EF
:1006B0009246044600F124080168880604D5E069E2
:1006C00021F01001216000E00120A84201DD471B5C
:1006D00000E00027A1697A1902EB0900081AA0615D
:1006E0002078C00602D42046AFF30080002608E040
:1006F000D4E901211AF806009047206A401C761CB4
:1007000020624E45F4DB2078C0060AD52046AFF3C0
:10071000008006E0D4E9012130209047206A401C87
:100720002062381EA7F10107F4DC07E0D4E90121BB
:1007300018F805009047206A401C2062281EA5F189
:100740000105F3DC2046AFF300802078000602D5D7
:100750000220BDE8F0870120FBE7000001694A1C88
:1007600002610878704700B58FB0CDE901310021F2
:10077000059105497944CDE9031011466846FFF714
:1007800035FE0FB000BD0000E5FFFFFF0A6802F86C
:10079000010B0A6070473A2800D2303820F020025E
:1007A000412A01D3A2F13700884201D34FF0FF3034
:1007B00070470000026811441378016018467047C2
:1007C000D16005497944516104497944116200219D
:1007D0001161114600F02EB8EDFFFFFF530000003D
:1007E000426842B1016811F8013B23B1521EC0E9D1
:1007F0000012184670470121C160881E7047426888
:100800005AB1C368016843B983688B4205D0491E59
:10081000521CC0E90012002070474FF0FF307047B3
:1008200010B5044600F0E6F90068005D00F0010034
:1008300010BD00002DE9F34F4FF0000A0C4656465C
:100840008DB001200C9001F10C000B9062690B98A7
:1008500001219047051E2DD0252D2CD0216A8847D7
:10086000C0B162690B9801219047216A884700282E
:10087000F7D16269411E0B98904700E0761CA16990
:100880000D988847216A88470028F7D1E1690D98BB
:100890008847DBE7A1690D988847A842074601D140
:1008A000761CD3E7E1690D9888477F1C02D1BAF125
:1008B000000F6FD06BE162690B9800273D46394607
:1008C00090472A2804D162690B980121904701259D
:1008D000DFF8D08262690B9801219047A0F13001C6
:1008E0000A290AD24745E5DC07EB870100EB4107FF
:1008F000303FDFD445F01005ECE7E90601D46FF096
:1009000000476C280AD04C2814D0682815D06A28D3
:100910000DD074281CD07A281AD01DE062690B987B
:10092000012190476C2802D045F0040514E045F001
:1009300002050DE045F020050AE062690B980121EF
:100940009047682802D045F0080505E045F40065A9
:1009500062690B9801219047C4E9015765283DD091
:1009600019DC58287AD00CDC452837D004DC25283F
:1009700026D041289ED131E046282FD0472899D152
:100980002CE05B2877D0612828D063287CD06428AD
:1009900023D15AE0F6E06F2848D008DC66281DD045
:1009A00067281BD0692821D06E2816D127E070282F
:1009B00045D0732868D0752847D078280DD14DE0F0
:1009C000A1690D988847252805463FF469AFE1697C
:1009D0000D9888476D1C3FF46AAFD8E00D99234607
:1009E0006A466FF00100AFF30080C5E045F04000BB
:1009F00023464FF000026060A80736D43EE0E807C7
:100A00007FF447AF2068011D21600068290501D5EA
:100A100006701BE7290701D5068017E7A90703D54C
:100A2000F117C0E9006111E706600FE745F04000EB
:100A300023464FF008026060A80716D41EE040F677
:100A40000E0125EA0100606016E045F040002346F3
:100A50004FF00A026060A80707D40FE045F040009D
:100A60006060A80708D5234610220D996FF0010099
:100A7000AFF3008080E007E0102223460D996FF06D
:100A80000100FFF741FD77E04FF0000963284F4672
:100A9000C8464B46CB4602D05B2806D038E0E80675
:100AA00001D40120A060012732E06269D4F80CB0C3
:100AB0000B98012190475E2807D14FF00109494664
:100AC0006269D4F80CB00B989047216939B90021BC
:100AD0000A4603AB43F82120491C0829FADBD8B3A6
:100AE000216949B308F1010862690B980121904717
:100AF0005D28F4D1B9F1000F09D0002003A951F805
:100B00002020D24341F82020401C0828F7DB03AB0B
:100B10002069002820794FEA40701ED05B462246AB
:100B2000CDF80080CDE901970D9900286FF0010004
:100B300020DAAFF300801FE0C11703AA00EBD161F8
:100B40004B1121F01F0102EB8302411A13680120AF
:100B5000884003431360C7E719E00D992246002837
:100B60006FF00100009702DAAFF3008004E0AFF30A
:100B7000008001E0AFF3008000280ADA401C06D1B3
:100B80000C9820B14FF0FF300FB0BDE8F08F504609
:100B9000FAE7E90701D10AF1010A064400200C90A6
:100BA00054E60000CCCCCC0C754600F035F8AE46CF
:100BB00005006946534620F00700854618B020B569
:100BC000FFF776FBBDE820404FF000064FF000072E
:100BD0004FF000084FF0000B21F00701AC46ACE8E5
:100BE000C009ACE8C009ACE8C009ACE8C0098D4652
:100BF0007047000010B500F013F8001D10BD00BFD5
:100C0000853B000010B50446AFF300802046BDE8E8
:100C10001040FFF738BB000000487047B0010020CB
:100C200000487047D001002001491820ABBEFEE704
:100C3000260002004FF0013C50F8042B51F8043B11
:100C40009A4221D1A2EB0C03934313EACC1317D1A0
:100C500050F8042B51F8043B9A4215D1A2EB0C0337
:100C6000934313EACC130BD150F8042B51F8043BF7
:100C70009A4209D1A2EB0C03934313EACC13DBD0C5
:100C80004FF00000704700BFD01A01BAB1FA81F1ED
:100C900001F0180122FA01F0CB40C1F12001DBB2D2
:100CA000C0B2C01A2CFA01F3D11A914311EAC31150
:100CB000E6D170477047FEE77047002240F6B83330
:100CC00006E00021491C89B29942FBD3521C92B222
:100CD0008242F6D3704772B6FEE710B590F8253021
:100CE00000210122022B03D00421C163012122E053
:100CF00003681C6824F00E041C60836C1C6824F4D8
:100D000080741C6003681C6824F001041C6090F867
:100D10004430046C03F01F0302FA03F36360D0E96C
:100D200013345C60436D33B11C6824F480741C6020
:100D3000D0E916345C6080F82520002280F8242059
:100D4000084610BD70B590F82520002401212346E7
:100D5000022A07D00422C26380F8251080F82430CC
:100D6000012429E00268156825F00E051560026867
:100D7000156825F001051560826C156825F48075ED
:100D8000156090F84420056C02F01F0201FA02F28F
:100D90006A60D0E913255560426D32B1156825F4BB
:100DA00080751560D0E91625556080F8251080F80B
:100DB0002430816B01B18847204670BD70B5044670
:100DC00000F03CF90546601C02D004484068044429
:100DD00000F034F9401BA042FAD370BD000000209F
:100DE0002DE9F04FDFF82092002301260324A9F11A
:100DF000040B85B00F2709F1040AABF1040EFAE0E9
:100E000006FA03F52A407CD091F804C00CF0030CDC
:100E1000BCF1010F02D0BCF1020F26D1D0F808C0FE
:100E2000CDF800C04FEA430C04FA0CF8CDF810C01E
:100E3000DDF800C02CEA080CCDF800C0D1F80C8019
:100E4000DDF810C008FA0CF8DDF800C048EA0C081C
:100E5000C0F80880D0F804C02CEA050C0D79C5F361
:100E600000159D4045EA0C0545600D79ED43AD0741
:100E70000ED0C5684FEA430804FA08FC25EA0C05C1
:100E8000D1F808C00CFA08FC4CEA050CC0F80CC0FC
:100E90000D7905F00305022D16D1DD0800EB850C58
:100EA000CDF808C0DCF820805D074FEAD56C07FA62
:100EB0000CF528EA05080D6905FA0CF5DDF808C0FF
:100EC00045EA0805CCF8205005684FEA430CCDF8F8
:100ED00008C004FA0CFC25EA0C0591F804C00CF0DB
:100EE0000308DDF808C008FA0CF848EA0508C0F85D
:100EF00000804D6815F4403F7CD0444DD5F860C06B
:100F000000E077E04CF0010CC5F860C02D6E23F0D6
:100F1000030C05F0010500953D4D65440295AD6853
:100F20004FEA837C4FEA1C7807FA08FC25EA0C0597
:100F3000B0F1904F06D0DFF8DCC0604505D14FF02E
:100F4000010C20E04FF0000C1DE0DFF8CCC0604544
:100F500002D14FF0020C16E0DFF8C0C0604502D1AC
:100F60004FF0030C0FE0DFF8B8C0604502D14FF03E
:100F7000040C08E0DFF8ACC0604502D14FF0050C6E
:100F800001E04FF0060C0CFA08FC4CEA050C029D3F
:100F9000C5F808C0D9F80050CC46D1F80480954374
:100FA0005FEAC82800D51543CCF80050DAF80050A5
:100FB000D446D1F8048095435FEA882800D51543CC
:100FC000CCF80050DBF80050DC46D1F804809543A3
:100FD0005FEA883800D51543CCF80050DEF80050A1
:100FE000F446D1F8048095435FEAC83800D515432C
:100FF000CCF800505B1C0A6832FA03F57FF400AFAE
:1010000005B0BDE8F08F0000080401400010024068
:10101000000001400004004800080048000C00489F
:1010200000100048001400480069084000D001206A
:1010300070470AB1816170478162704701488068DA
:101040007047000000000020024881684268114497
:10105000816070470000002010B50024032000F0DC
:1010600073F80F2000F008F808B1012401E000F047
:1010700025F8204610BD000070B50E4E0546002430
:10108000706898B14FF47A71B1FBF0F00A490968C1
:10109000B1FBF0F000F060FD40B9102D06D2002247
:1010A0002946501E00F030F8356000E0012420464B
:1010B00070BD0000000000200C0000200A4882B033
:1010C000016E41F001010166016E01F00101009124
:1010D000816D41F080518165806D00F080500090FD
:1010E00002B000F0A1B8000000100240002809DBA7
:1010F00000F01F02012191404009800000F1E02032
:10110000C0F8001170470000F0B40E4B1B680C468D
:10111000C3F30223C3F10705042D00D90425191DCB
:10112000072901D2002300E0DB1E012606FA05F1A3
:10113000491E214099409E40761E16403143F0BC26
:1011400003F0D7B80CED00E0064900F0070208688C
:101150004FF6FF03184040EA0220034A104308609C
:10116000704700000CED00E00000FA052B492C4B05
:101170000A6832214A432B4940B1B0F5007F086824
:1011800029D020F4C06040F480602CE00868C0F3EF
:101190004120022804D051F8800F20F4807022E012
:1011A000D1F8800020F48070C1F88000086820F435
:1011B000C06040F400700860B2FBF3F0401C00E037
:1011C000401E4A69520501D50028F9D148694005F9
:1011D0000AD503207047C0F34120022806D051F8F9
:1011E000800F40F48070086000207047D1F88000C4
:1011F00040F48070C1F88000086820F4C06040F4BA
:1012000000700860B2FBF3F0401C00E0401E4A6929
:101210005205DBD50028F9D1D8E700000C000020EA
:1012200040420F00007000400248816841F4804154
:1012300081607047007000402DE9F8430446006863
:1012400000269D4D00035ED5A86D0027C00008D480
:10125000A86D40F08050A865A86D012700F080506F
:101260000090DFF85892D9F8001041F48071C9F865
:101270000010FFF7E3FE804606E000BFFFF7DEFE4A
:10128000A0EB080002282BD8D9F80000C005F5D53E
:10129000D5F8900010F4407014D0216C814211D028
:1012A000D5F89000D5F8901020F4407041F48031CA
:1012B000C5F89010D5F8901021F48031C5F8901041
:1012C000C5F89000C00711D0FFF7B8FE804641F284
:1012D000883907E0FFF7B2FEA0EB0801494501D9C4
:1012E00003260BE0D5F890008007F3D5D5F89000E1
:1012F000216C20F440700843C5F890001FB1A86D20
:1013000020F08050A8652078C00707D0D5F8880065
:10131000616820F003000843C5F888002078800742
:1013200007D5D5F88800A16820F00C000843C5F85F
:1013300088002078400707D5D5F88800E16820F0BC
:1013400030000843C5F888002078000707D5D5F895
:101350008800216920F0C0000843C5F88800207883
:10136000800607D5D5F88800616920F440600843FD
:10137000C5F888002078400607D5D5F88800A1690F
:1013800020F440500843C5F888002078000607D5AF
:10139000D5F88800E16920F440400843C5F888008A
:1013A0002088C00507D5D5F88800216A20F4403090
:1013B0000843C5F888002088800507D5D5F888003F
:1013C000616A20F440200843C5F888002088400561
:1013D0000FD5D5F88800A16A20F440100843C5F85D
:1013E0008800A06AB0F5801F03D1E86840F480103F
:1013F000E860208800050FD5D5F88800E16A20F460
:1014000040000843C5F88800E06AB0F5800F03D1BA
:10141000E86840F48010E8602088C0040FD5D5F853
:101420008800216B20F040700843C5F88800206BCD
:10143000B0F1807F03D1E86840F48010E860208834
:101440004FF0006180040ED5D5F88800626B20F063
:1014500040601043C5F88800606B884203D1E8689B
:1014600040F48010E860208840040ED5D5F888004C
:10147000A26B20F040601043C5F88800A06B884242
:1014800003D1E86840F48010E860208800040FD59C
:10149000D5F88800E16B20F040500843C5F888007B
:1014A000E06BB0F1805F03D1E86840F48030E86021
:1014B0003046BDE8F8830000001002400070004094
:1014C0002DE9F0470E4605004FF0000725D0DFF864
:1014D000AC81D8F8000000F00F00B0420CD2D8F870
:1014E000001021F00F013143C8F80010D8F80000B7
:1014F00000F00F00B04210D12968614CC80741F2DA
:10150000883A5AD06868DFF87C91032808D002280E
:1015100020682DD0400500282CDB0120BDE8F08795
:1015200020688001F9D5E06800F00302E068C0F3AC
:101530000310401C032A19D0534A00BFB2FBF0F03D
:10154000E268C2F306225043E268C2F34162521CD1
:101550005200B0FBF2F0484517D9A06810F0F00F28
:101560000CD0880711D5A86840B10EE0474AE5E7DE
:101570008003D0E700F0B6F8484506D9A06820F00F
:10158000F00040F08000A0608027A068696820F02B
:1015900003000843A060FFF751FD814606E000BF4D
:1015A000FFF74CFDA0EB090151453AD8A0686968E6
:1015B00000F00C00B0EB810FF2D12868810714D540
:1015C000400703D5A06840F4E060A06028780007D9
:1015D00005D5A06820F4605040F4E060A060A068E9
:1015E000A96820F0F000084304E0802F03D1A06830
:1015F00020F0F000A060D8F80010404601F00F0184
:10160000B14216D9016821F00F0131430160FFF7A3
:1016100015FD074607E000BFFFF710FDC11B514550
:1016200001D903207AE7D8F8000000F00F00B0429B
:10163000F2D12878400705D5A068E96820F4E06079
:101640000843A0602878000706D5A068296920F41F
:10165000605040EAC100A06000F044F8A1680C4A64
:10166000C1F30311515C01F01F01C8400949086032
:1016700009480068BDE8F047FFF7FEBC00200240C3
:101680000010024000B4C4040024F40000366E01CF
:10169000E24700080C000020000000200548064931
:1016A00000688968054AC1F30221515C01F01F01FD
:1016B000C84070470C00002000100240F2470008AC
:1016C0000548064900688968054AC1F3C221515C92
:1016D00001F01F01C84070470C00002000100240BC
:1016E000F2470008184910B58868C0F3810217480E
:1016F000012A0BD08A68164BC2F38102022A06D057
:101700008A68C2F38102032A03D0002010BD184664
:1017100010BDCA6802F00304CA68C2F30312521C67
:10172000032C02D0B0FBF2F001E0B3FBF2F0CA6888
:10173000C968C2F306225043C1F34161491C490004
:10174000B0FBF1F010BD0000001002400024F400D6
:1017500000366E012DE9F84304007AD02078F84D68
:10176000C00747D0A868E96800F00C0001F0030149
:101770000C2802D0082817D001E0032914D0606893
:10178000B0F5803F17D0B0F5A02F286817D020F40F
:1017900080302860286820F4802028606068E0B1EC
:1017A000FFF74CFC064614E02868800322D56068E9
:1017B0000028D2D01EE0286840F48030EDE740F4E5
:1017C00080202860F7E700BFFFF738FC801B642803
:1017D00070D828688003F7D50CE0FFF72FFC064689
:1017E00005E000BFFFF72AFC801B6428F0D82868BA
:1017F0008003F7D4207880074CD5A868E96800F00A
:101800000C0001F003010C2802D004280DD001E0E7
:1018100002290AD0E068002828682BD040F48070A4
:101820002860FFF70BFC064619E02868400502D542
:10183000E068002891D06868217C20F0FE4040EAF2
:1018400001606860BF480068FFF716FC002800D1FF
:1018500020E072E1FFF7F2FB801B0228B8D828686D
:101860004005F7D56868217C20F0FE4040EA016021
:1018700068600FE020F480702860FFF7DFFB064609
:1018800005E000BFFFF7DAFB801B0228A0D828681C
:101890004005F7D42078000729D560690028D5F8DD
:1018A000940013D040F00100C5F89400FFF7C6FB88
:1018B000064606E090E000BFFFF7C0FB801B022851
:1018C00086D8D5F894008007F6D510E020F0010006
:1018D000C5F89400FFF7B2FB064604E0FFF7AEFB45
:1018E000801B022878D8D5F894008007F6D4207899
:1018F000400761D5A86D0026C00008D4A86D40F04F
:101900008050A865A86D012600F0805000908E4898
:101910000168C90511D40168804641F480710160F5
:10192000FFF78CFB074604E0FFF788FBC01B02288B
:1019300052D8D8F80000C005F6D5A068012815D007
:101940000528D5F8900016D020F00100C5F89000C9
:10195000D5F8900020F00400C5F89000A06841F28E
:101960008838B8B1FFF76AFB07460EE0D5F890005B
:1019700040F00100F0E740F00400C5F89000F5E702
:10198000FFF75CFBC11B414526D8D5F890008007C6
:10199000F6D50CE0FFF752FB074604E0FFF74EFBDD
:1019A000C11B414518D8D5F890008007F6D41EB168
:1019B000A86D20F08050A8652078800629D5A06900
:1019C0000028D5F8980013D040F00100C5F8980021
:1019D000FFF734FB064606E075E000BFFFF72EFB7D
:1019E000801B02286FD8D5F898008007F6D510E044
:1019F00020F00100C5F89800FFF720FB064604E040
:101A0000FFF71CFB801B02285DD8D5F898008007E3
:101A1000F6D4E069F0B3A968C1F3810103295DD070
:101A20000228286820F08070286003D0FFF706FBAA
:101A300004464BE0FFF702FB064604E0FFF7FEFA20
:101A4000801B02283FD828688001F7D4F4E90801F8
:101A50006FF00F0202EB01110843218A520449087A
:101A600002EB4151A26841EA02210843217D4FF077
:101A70007E42490802EB41610843217B40EAC16094
:101A8000E968324A11400843E860286840F08070F5
:101A9000286000E05EE0E86840F08070E860FFF7F2
:101AA000CDFA044605E000BFFFF7C8FA001B022884
:101AB00009D828688001F7D54CE000BFFFF7BEFACF
:101AC000001B022802D90320BDE8F88328688001A2
:101AD000F4D4E8681E490840E8603BE00128F3D0F0
:101AE000E868226A00F00301914226D1616A00F0A1
:101AF000F0020901103991421FD1A26A00F4FE419F
:101B0000B1EB022F19D194F82C2000F07841B1EB01
:101B1000C26F12D1218E00F4C00249084905A1F517
:101B20000011914209D194F8341000F0C0604908C6
:101B30004906A1F1007181420CD00120C4E70000E8
:101B40000010024000000020007000400C809F0147
:101B5000FCFFEEFE0020B7E710B5401EB0F1807F1D
:101B600001D3012010BD4FF0E02460610F21601708
:101B700002F0BFFB0020A06107202061002010BD03
:101B8000704770477047704770477047F0B590F8DE
:101B90003C20012A3AD0012580F83C50022280F8EE
:101BA0003D2003685A689C68194E1A4FB34201D011
:101BB000BB4204D122F4700C4A6842EA0C02DFF8FE
:101BC00058C002EA0C02D1F800C04CEA020CC3F87B
:101BD00004C00268B2420DD0B2F1804F0AD00F4B60
:101BE0009A4207D00E4B9A4204D0BA4202D00D4B13
:101BF0009A4204D1896824F080031943916080F8E7
:101C00003D50002180F83C100846F0BD0220F0BD98
:101C1000002C0140003401408FFFFFFD0004004014
:101C20000008004000400140704710B5040003D098
:101C300094F83D0010B107E0012010BD002084F8A9
:101C40003C00204600F022F8022084F83D00211DCF
:101C5000206801F08BFB012084F8480084F83E00E6
:101C600084F83F0084F8400084F8410084F8420082
:101C700084F8430084F8440084F8450084F8460062
:101C800084F8470084F83D00002010BD08B50168C5
:101C90001048B1F1804F14D00F4A914219D1816D93
:101CA00041F004018165806D002200F00400009085
:101CB00011461E20FFF728FABDE808401E20FFF756
:101CC00015BA816D41F001018165806D00F0010060
:101CD000009008BD001002400008004090F83D1040
:101CE000012901D001207047022180F83D100168D0
:101CF000CA6842F00102CA600068104988420ED0EA
:101D0000B0F1804F0BD00E49884208D00D4988426F
:101D100005D00D49884202D00C49884207D181681C
:101D20000B4A1140062906D0B1F5803F03D0016867
:101D300041F001010160002070470000002C0140CB
:101D40000004004000080040003401400040014011
:101D50000700010070B5044690F83C0000250128FA
:101D600014D0012684F83C60022084F83D002268EB
:101D70009068364B184020F47F40906008687028C7
:101D80002ED010DC10F00F0F03D021E04FF0020036
:101D900070BD4FEA2012072A1AD2DFE802F0525231
:101DA00052524A3840002A4BC21A984249D009DCA4
:101DB000B0F5805F0DD0B0F5005F1CD0B0F1101F02
:101DC00006D13EE0102A3CD0202A3AD0502A38D002
:101DD000012584F83D60002084F83C00284670BD51
:101DE000CB68D1E90121206801F02BFB20688168D4
:101DF00041F0770109E0CB68D1E90121206801F0C9
:101E000020FB2068816841F480418160E1E7CA6875
:101E10004968206801F0C0FC5021206806E0CA68CB
:101E20004968206801F0C9FC6021206801F014FBBA
:101E3000CFE7CA684968206801F0AEFC40212068FD
:101E4000F4E7226801461046F0E7000088FFCEFF65
:101E50002000100070472DE9F04104460068C66874
:101E600005694FF00007A90713D5B10711D5F91E71
:101E7000016101202077206880698007204602D018
:101E8000FFF7E8FF04E000F0DDF8204600F09FF9DE
:101E90002777680716D5700714D521686FF00400FE
:101EA0000861022020772068806910F4407F204676
:101EB00002D0FFF7CFFF04E000F0C4F8204600F0A6
:101EC00086F92777280715D5300713D521686FF0D5
:101ED00008000861042020772068C0698007204638
:101EE00002D0FFF7B7FF04E000F0ACF8204600F0A6
:101EF0006EF92777E80616D5F00614D521686FF03D
:101F000010000861082020772068C06910F4407F25
:101F1000204602D0FFF79EFF04E000F093F8204631
:101F200000F055F92777E80708D0F00706D02168B8
:101F30006FF001000861204600F0C8F9280601D4BE
:101F4000A80408D5300606D521686FF40250086150
:101F50002046FFF716FEE80508D5300606D52168AD
:101F60006FF4807008612046FFF70AFE680608D506
:101F7000700606D521686FF040000861204600F029
:101F8000F1F9A80608D5B00606D521686FF0200043
:101F900008612046FFF7F6FDE80208D5F00206D5F5
:101FA00021686FF4801008612046FFF7EDFDA8025C
:101FB00008D5B00206D521686FF4001008612046EC
:101FC000FFF7E1FD680208D5700206D521686FF4BD
:101FD000800008612046FFF7D8FD28020AD53002AC
:101FE00008D521686FF4000008612046BDE8F04183
:101FF000FFF71ABEBDE8F08110B586B00446142183
:102000006846FEF727FB2068B0F1804F15D10C48D9
:10201000C16C41F00101C164C06C694600F001006F
:102020000590022000900190002002900390012072
:1020300004904FF09040FEF7D3FE06B010BD0000B4
:1020400000100240704770B5044690F83C0000262E
:102050000D4601280BD0012084F83C000C2A4AD000
:1020600007DC82B1042A20D0082A06D131E0022000
:1020700070BD102A53D0142A63D00126002084F8A2
:102080003C00304670BD206801F0F0F9206881699D
:1020900041F0080181612068816921F004018161BA
:1020A000206881692A69114311E0206801F02CFA47
:1020B0002068816941F4006181612068816921F4AF
:1020C00080618161206881692A6941EA0221816118
:1020D000D4E7206801F060FA2068C16941F0080186
:1020E000C1612068C16921F00401C1612068C16932
:1020F0002A69114311E0206801F096FA2068C1694D
:1021000041F40061C1612068C16921F48061C1614D
:102110002068C1692A6941EA0221C161AEE72068ED
:1021200001F0CAFA2068016D41F0080101652068DC
:10213000016D21F0040101652068016D2A691143D8
:1021400011E0206801F0F0FA2068016D41F40061AF
:1021500001652068016D21F4806101652068016DD1
:102160002A6941EA0221016588E710B5040003D01D
:1021700094F83D0010B107E0012010BD002084F864
:102180003C00204600F022F8022084F83D00211D8A
:10219000206801F0EBF8012084F8480084F83E0044
:1021A00084F83F0084F8400084F8410084F842003D
:1021B00084F8430084F8440084F8450084F846001D
:1021C00084F8470084F83D00002010BD7047704738
:1021D00030B50446022269B1042912D0082917D06B
:1021E0000C291CD0102921D094F84300012824D0B8
:1021F000012030BD94F83E000128F9D184F83E203A
:102200001DE094F83F000128F2D184F83F2016E049
:1022100094F840000128EBD184F840200FE094F8B6
:1022200041000128E4D184F8412008E094F84200FC
:102230000128DDD184F8422001E084F84320012206
:10224000206801F0F1F8194B20681949194A9842A1
:1022500009D0884207D0904205D0174DA84202D03D
:10226000164DA84203D1456C45F4004545642068ED
:1022700098420CD0B0F1804F09D0114B984206D053
:10228000104B984203D0884201D0904207D1816818
:102290000D4A1140062906D0B1F5803F03D00168F0
:1022A00041F001010160002030BD0000002C014020
:1022B000003401400040014000440140004801401A
:1022C00000040040000800400700010070B50068ED
:1022D000214988423FD1214D01212846FEF7A4FE25
:1022E00000B101201E4C022160702846FEF79CFEC2
:1022F00000B10120207104212846FEF795FE00B1AF
:102300000120E07101214FF09040FEF78DFE00B1F9
:1023100001200021A07201224FEA010301EB4100DC
:10232000255C25B1012D07D0022D11D10BE0051937
:102330006D786DB922540BE005196E783EB902260E
:102340002654AA7004E005196D78012D00D123549C
:10235000491C0429E2DB70BD00080040000400486D
:10236000A4010020704790F88410012918D00121A1
:1023700080F884102421C0F8881001680A680B686E
:1023800023F001030B6022F0005100224266036833
:1023900019602021C0F8881080F88420104670470A
:1023A000022070477047704770B5044690F884006B
:1023B00001281DD0012084F884002420C4F888005E
:1023C00020680568026822F00102026020688268C5
:1023D00022F060620A438260204601F001FA206820
:1023E00005602020C4F88800002084F8840070BDB7
:1023F000022070BD70B5044690F8840001281DD0FD
:10240000012084F884002420C4F88800206805682E
:10241000026822F0010202602068826822F06042B5
:102420000A438260204601F0DBF920680560202025
:10243000C4F88800002084F8840070BD022070BDBC
:1024400070477047704700002DE9F041036804466B
:10245000D86919689A6840F60F0528424FF00005C0
:102460004FF002060AD187067ED501F0200702F060
:10247000805C57EA0C0777D0616F42E1B64FDFF816
:10248000DCC2174001EA0C0C57EA0C0C6CD05FEA76
:10249000C07C0CD05FEAC15C09D54FF0010CC3F8D9
:1024A00020C0D4F8903043F00103C4F89030830783
:1024B00009D5D30707D023681E62D4F8903043F0C3
:1024C0000403C4F8903043070AD5D30708D0266820
:1024D00004233362D4F8903043F00203C4F8903000
:1024E00003070CD501F020033B4308D026680823DE
:1024F0003362D4F8903043F00803C4F890300305F9
:102500000BD54B0109D526684FF400633362D4F82C
:10251000903043F02003C4F89030D4F89030002B72
:102520003DD0800609D501F0200002F0805108431B
:1025300003D0616F09B120468847D4F89000216824
:102540008968490602D410F0280F2AD0204601F0ED
:102550002BFA2068806840061ED52068083050E8B5
:10256000001F21F0400100E021E040E80012002AB5
:10257000F3D1D4F8800078B179498163D4F8800030
:10258000FEF7E0FB00280AD0D4F88000816B00E061
:102590002046BDE8F04108472046FFF753FFBDE85D
:1025A000F0812046FFF74EFFC4F89050F7E7D4F8CB
:1025B0006CC02027BCF1010F7ED15FEAC06C7BD5D7
:1025C0005FEAC16C78D510201862206880684006E8
:1025D00051D5D4F880100A6850680004000C3ED031
:1025E000B4F85C3083423AD9A4F85E000868006809
:1025F00080062CD4216851E8000F20F4807041E857
:102600000002002AF6D12068083050E8001F21F0AF
:10261000010140E80012002AF5D12068083050E896
:10262000001F21F0400140E80012002AF5D1C4F853
:102630008C70E566216851E8000F20F0100041E839
:102640000002002AF6D1D4F88000FEF746FB266788
:10265000B4F85C00B4F85E10401A81B207E0B4F838
:102660005C1081429BD11068800698D52667204671
:10267000FFF798FE93E7B4F85C00B4F85E10401AD8
:1026800081B2B4F85E00002889D0002987D0226882
:1026900052E8000F20F4907042E80003002BF6D1BE
:1026A0002D4BDB432068083050E8002F1A4040E8EB
:1026B000002CBCF1000F00E00EE0F3D1C4F88C70E8
:1026C000E5666567206850E8002F22F0100240E8B8
:1026D0000023002BF6D1C9E7C60209D5560207D55B
:1026E0004FF4801018622046BDE8F041FFF7A9BE04
:1026F00003060AD501F0800302F40002134304D05C
:10270000A16F00297FF444AF49E7420611D54A067C
:102710000FD52046016851E8002F22F0400241E821
:102720000023002BF6D1C0F88870856700F023F9EC
:1027300035E7020206D54A0004D52046BDE8F0413F
:10274000FFF77EBEC00195D5002993DA2046BDE88B
:10275000F041FFF728BE0000010000102001000436
:102760009939000810B5040003D0D4F8880010B1DE
:1027700007E0012010BD002084F88400204600F00E
:1027800027F82420C4F888002068016821F001019E
:102790000160A06A10B1204601F044F8204601F023
:1027A00095FB0128E6D02068416821F49041416002
:1027B0002068816821F02A0181602068016841F069
:1027C000010101602046BDE8104001F08FB8000013
:1027D00010B598B00446142111A8FDF73BFF442121
:1027E0006846FDF737FF1B492068884230D1012039
:1027F0000024CDE900046846FEF71EFD08B1FEF78F
:102800006AFA1548016E41F480410166016E01F4D7
:1028100080411691C16C41F00101C164C06C11A9E5
:1028200000F0010016904FF4C06011900220CDE935
:1028300012040720CDE914404FF09040FEF7D0FA83
:10284000002211462520FEF75FFC2520FEF74EFCF6
:1028500018B010BD003801400010024030B4D0F86C
:102860008C30202B02D0022030BC7047A9B1A2B11D
:102870000023C3660A4C0368A3420BD05B681B02AB
:1028800008D5046854E8003F43F0806344E800350D
:10289000002DF6D130BC01F053BC0120E4E700006C
:1028A00000800040064800F10803416802785A544D
:1028B000491C4160014601220248FFF7CFBF0000DA
:1028C00068000020100100202DE9F8430446D0F8EC
:1028D0008800984616460D46202802D00220BDE802
:1028E000F883A5B19EB10020C4F890002120C4F85F
:1028F00088001834FEF7A2FBA6878146E68754F8C5
:10290000100C2027183CB0F5805F02D003E00120B6
:10291000E5E7206910B12E46002510E000260EE004
:102920008021204601F094FCC0B9DEB116F8010BFD
:1029300021688862B4F85600401EA4F85600B4F826
:1029400056004B464FF00002CDF800800028E7D13A
:102950004FF04001204601F07BFC40B1C4F8887084
:102960000320BCE735F8020BC0F30800E0E7C4F829
:1029700088700020B3E77047FEE7000000B585B01F
:1029800014216846FDF766FE4FF6FF7000900020A8
:102990000321CDE90201019069460248FEF720FAC1
:1029A00005B000BD0008004800B585B01421684698
:1029B000FDF750FE4FF6FF700090012001900320BC
:1029C00003900020029069460248FEF709FA05B01C
:1029D00000BD00000008004870B5002406462146EE
:1029E000204600F003F900F041F94FF496353046E7
:1029F00000F010F9641CAC42F9D370BD30B587B05B
:102A000014216846FDF726FE1E48C16C41F0040102
:102A1000C164C16C01F004010591C16C41F0010178
:102A2000C164C16C01F001010591C16C41F002016A
:102A3000C164C06C012500F0020005904FF448709D
:102A4000CDE9000500240394694602940E48FEF780
:102A5000C7F9280203940090CDE901544FF0904447
:102A600069462046FEF7BCF9FFF79EFFA06940F4D7
:102A70008070A06104481830016841F40871016059
:102A800007B030BD0010024000040048203AD2B226
:102A9000034B02EB420203EB021200F019B80000F4
:102AA000FA470008F0B50E460746002540F23F14ED
:102AB00007E021463846FFF7E9FF103C6D1CA4B241
:102AC000761C3278002A01D0142DF2D3F0BD00001C
:102AD0002DE9F04791468A460026044600F086F824
:102AE000DFF84080012700BF00F0C0F85FF000056C
:102AF00039F8160007FA05F10842404601D140882E
:102B000000E0008800F086F86D1C102DF0D3641CE6
:102B1000E4B25146204600F069F8761C182EE3D343
:102B2000BDE8F0876000002010B5FFF767FF0020C8
:102B300000F014F8084CA080A088A0F502413039BC
:102B400006D000F0CDFA002000F008F8A08010BDFB
:102B500000F03DFAF7E700006000002070B51D4965
:102B60000A6842F400720A600A6842F480720A60DD
:102B7000184C103C226842F020022260164A106075
:102B8000086840F02000086000BF00BF00BF206858
:102B900040F020002060206840F480702060FFF743
:102BA000EDFE4FF09041886A40F48070886200BF6B
:102BB00000BF00BF0848001F006885B2886940F464
:102BC00080708861FFF7F0FE206840F4007020609C
:102BD000284670BD280400481408004801B5BDF817
:102BE00000000149488008BD6000002010B50C4677
:102BF0000146202000F068F82146BDE81040212061
:102C000000F062B801B5BDF800000149088008BDB8
:102C100060000020134A116841F4007111601149ED
:102C200010390B6843F480730B600B6843F020038A
:102C30000B600D4B1860106840F02000106000BF62
:102C400000BF00BF086840F020000860086840F43A
:102C50008070086000BF00BF00BF086840F40070CB
:102C600008607047280400481408004814490868A0
:102C700040F400700860086840F4807008601048F4
:102C80001038026842F0200202600E4B22221A60C5
:102C90000A6842F020020A6000BF00BF00BF01685E
:102CA00041F020010160016841F48071016000BFC2
:102CB00000BF00BF016841F400710160704700006F
:102CC0002804004814080048184B10B51A6842F44C
:102CD00000721A601A6842F480721A60134A103A3D
:102CE000146844F020041460114C2060186840F00F
:102CF0002000186000BF00BF00BF106840F0200037
:102D00001060106840F4807010602160186840F016
:102D10002000186000BF00BF00BF106840F0200016
:102D20001060106840F48070106010BD28040048E6
:102D3000140800482DE9F04F87B014216846FDF7CC
:102D400089FC4248C16C41F00401C164C16C01F0CE
:102D500004010591C16C41F02001C164C16C01F016
:102D600020010591C16C41F00101C164C16C01F009
:102D700001010591C16C41F00201C164C16C01F017
:102D800002010591C16C41F00801C164C06CDFF81B
:102D9000C08000F00800059001224FF47F414046BA
:102DA000FEF747F90022FF214046FEF742F94FF4B3
:102DB00080764FF09049002231464846FEF739F9B7
:102DC000DFF890A0002204215046FEF732F9DFF828
:102DD00088B04FF44877002239465846FEF729F963
:102DE0004FF6FF70009001250024CDE9015469469B
:102DF00040460394FDF7F4FFCDE900546946484688
:102E00000295FDF7EDFF07208DE831006946584631
:102E1000FDF7E6FF0096CDE9015469464846039464
:102E2000FDF7DEFF04200090CDE9015469465046CD
:102E30000394FDF7D5FF0097CDE901546946584644
:102E40000394FDF7CDFF07B0BDE8F08F00100240FE
:102E500000080048000C00480004004810B58EB07F
:102E600000240794089409940A940B940C941C2150
:102E700068460D94FDF7EEFB1E484FF0804101605F
:102E80004F21C0E9011440F2E731C0E90314846125
:102E9000FEF7CBFE08B1FDF71EFF4FF48050079000
:102EA00007A91448FEF756FF08B1FDF714FF1148B3
:102EB000FFF75BF908B1FDF70EFF0B940BA90D4866
:102EC0000D94FEF763FE08B1FDF705FF602000904A
:102ED0003220CDE901040422694606480494FFF734
:102EE000B2F808B1FDF7F7FE0248FFF785F80EB01B
:102EF00010BD00007800002010B588B000241748ED
:102F00000094019402940394049405941249069445
:102F100001604F21C0E9011440F2E731C0E9031418
:102F20008461FEF782FE08B1FDF7D5FE4FF48050B4
:102F3000009069460948FEF70DFF08B1FDF7CBFE8A
:102F4000049404A905480694FEF720FE002801D049
:102F5000FDF7C1FE08B010BD00080040C40000200D
:102F6000184810B5164901604FF416514160002110
:102F700081600C22C160C0E904128161C1610162FB
:102F800041628162FFF7EEFB08B1FDF7A4FE00216C
:102F90000C48FFF72FFA08B1FDF79DFE0021094804
:102FA000FFF702FA08B1FDF796FE0648FFF7DBF9D6
:102FB000002803D0BDE81040FDF78DBE10BD000015
:102FC0000038014010010020FEE7FEE7704730B5F1
:102FD00001210020FFF778FE4FF47A70FDF76DFEB7
:102FE00000210120FFF770FE41F290711020FFF7E1
:102FF0006BFE4FF41C516020FFF766FE012161203B
:10300000FFF762FE02214620FFF75EFE48F2100144
:103010001320FFF759FE48F2FE011220FFF754FE7D
:103020004FF4A0610220FFF74FFE41F23001032070
:10303000FFF74AFE40F2033421463020FFF744FEFA
:1030400021463120FFF740FE21463220FFF73CFEAB
:10305000E51E29463320FFF737FE03213420FFF712
:1030600033FE21463520FFF72FFE14213620FFF7CF
:103070002BFE21463720FFF727FE21463820FFF799
:1030800023FE21463920FFF71FFE29463A20FFF78D
:103090001BFE03213B20FFF717FE21463C20FFF7D4
:1030A00013FE4FF4A0513D20FFF70EFE4FF40071C8
:1030B0009220FFF709FE21469320FFF705FE40F618
:1030C0000D019020FFF700FE41F218010320FFF7E9
:1030D000FBFDBDE8304040F273110720FFF7F4BD5F
:1030E00010B543F20801E320FFF7EEFD1221E720BF
:1030F000FFF7EAFD41F23121EF20FFF7E5FD002166
:103100000120FFF7E1FD4FF4E0610220FFF7DCFD55
:1031100041F230010320FFF7D7FD00210420FFF723
:10312000D3FD40F207210820FFF7CEFD0021092042
:10313000FFF7CAFD00210A20FFF7C6FD00210C2081
:10314000FFF7C2FD00210D20FFF7BEFD00210F207B
:10315000FFF7BAFD00211020FFF7B6FD072111206F
:10316000FFF7B2FD00211220FFF7AEFD0021132072
:10317000FFF7AAFDC820FDF721FE41F29061102063
:10318000FFF7A2FD40F227211120FFF79DFD32201D
:10319000FDF714FE1D211220FFF796FD3220FDF7EA
:1031A0000DFE4FF400611320FFF78EFD142129203E
:1031B000FFF78AFD0B212B20FFF786FD3220FDF75C
:1031C000FDFD00212020FFF77FFD00212120FFF7DA
:1031D0007BFD07213020FFF777FD40F2077131209A
:1031E000FFF772FD06213220FFF76EFD40F20471F9
:1031F0003520FFF769FD41F604713620FFF764FDC5
:1032000004213720FFF760FD00213820FFF75CFD27
:1032100040F206713920FFF757FD40F201713C2062
:10322000FFF752FD0F213D20FFF74EFD00215020FA
:10323000FFF74AFDEF215120FFF746FD0021522004
:10324000FFF742FD40F23F115320FFF73DFD4FF4E1
:103250001C516020FFF738FD01216120FFF734FD8C
:1032600000216A20FFF730FD00218020FFF72CFDB0
:1032700000218120FFF728FD00218220FFF724FD97
:1032800000218320FFF720FD00218420FFF71CFD93
:1032900000218520FFF718FD10219020FFF714FD75
:1032A00000219220FFF710FD03219320FFF70CFD72
:1032B0004FF488719520FFF707FD00219720FFF755
:1032C00003FD00219820FFF7FFFC41F218010320C5
:1032D000FFF7FAFCBDE8104040F273110720FFF73A
:1032E000F3BC7047FDF7B0BE10B594B03821684606
:1032F000FDF7B0F914210EA8FDF7ACF94FF40070FA
:10330000FDF734FF01200090000401900220032407
:10331000CDE907041421CDE90A100C900D90099411
:103320006846FEF717FA08B172B6FEE70F20CDE93E
:103330000E04002010901190129002210EA8FEF7AA
:10334000BFF8002801D072B6FEE714B010BD00002F
:103350000248016841F470010160704788ED00E0A7
:103360000148FEF778BD0000C40000202DE9F043BD
:103370000268264B264D274E274C4FF08049984235
:1033800007D0484505D0A84203D0B04201D0A042A2
:1033900003D122F070074A683A43204FDFF880C01B
:1033A000DFF8808098420DD048450BD0A84209D064
:1033B000B04207D0A04205D0B84203D0604501D04A
:1033C000404503D122F44075CA682A434D6922F072
:1033D00080022A4302608A68C2620A688262984256
:1033E00007D0A04205D0B84203D0604501D0404587
:1033F00001D109690163012141610169C90703D054
:10340000016921F001010161BDE8F083002C014058
:10341000000400400008004000340140004001402A
:10342000004401400048014010B501F01F03012194
:10343000046A99408C430462016A9A401143016214
:1034400010BD10B5846842EA032224F47F440A4385
:103450002243826010BD00008268034B1A400A4379
:1034600042F00701816070478FFFCFFF2DE9F043E5
:10347000056A026A22F001020262436882691C4CFA
:1034800025F0020522400C6822F0030214438A68EA
:10349000194E2A43174D194FDFF864C0DFF86490C6
:1034A000A84207D0B04205D0B84203D0604501D051
:1034B000484506D122F00808CA6842EA080222F00C
:1034C0000402A84207D0B04205D0B84203D06045FC
:1034D00001D0484505D14D6923F440731D438B69E4
:1034E0002B4343608461496841630262BDE8F08315
:1034F0008FFFFEFF002C01400034014000400140DE
:103500000044014000480140F0B5056A026A22F01B
:103510001002026242688369194C1B4E23400C68FA
:1035200023F4407343EA042425F020038D6843EA22
:103530000513144DA84201D0B04206D1CF6823F044
:10354000800343EA071323F04003A8420AD0B042A5
:1035500008D00E4DA84205D00D4DA84202D00D4D09
:10356000A84207D14D6922F4406242EA85028D6982
:1035700042EA850242608461496881630362F0BD6A
:10358000FF8FFFFE002C014000340140004001404D
:103590000044014000480140F0B5056A026A22F487
:1035A000807202624368C269194C1B4E22400C684B
:1035B00022F00302144325F400728D6842EA0522CA
:1035C000144DA84201D0B04206D1CF6822F4006267
:1035D00042EA072222F48062A8420AD0B04208D010
:1035E0000E4DA84205D00E4DA84202D00D4DA84266
:1035F00007D14D6923F4405343EA05138D6943EA2B
:1036000005134360C4614968C1630262F0BD0000F4
:103610008FFFFEFF002C01400034014000400140BC
:103620000044014000480140F0B5056A026A22F4F6
:10363000805202624268C369194C1B4E23400C68D9
:1036400023F4407343EA042425F400538D6843EACD
:103650000533144DA84201D0B04206D1CF6823F4FF
:10366000004343EA073323F48043A8420AD0B04220
:1036700008D00E4DA84205D00D4DA84202D00D4DE8
:10368000A84207D14D6922F4404242EA85128D6971
:1036900042EA85124260C461496801640362F0BD78
:1036A000FF8FFFFE002C014000340140004001402C
:1036B000004401400048014030B5056A026A22F426
:1036C000803202624268036D114C23400C681C4337
:1036D00025F400330D8943EA05430E4DA8420BD073
:1036E0000D4DA84208D00D4DA84205D00C4DA84262
:1036F00002D00C4DA84204D14D6922F4803242EA36
:1037000005224260046549688164036230BD00009F
:103710008FFFFEFF002C01400034014000400140BB
:10372000004401400048014030B5046A026A22F4B6
:10373000801202624268036D114D24F400142B4084
:103740000D6843EA05230D8944EA05540D4DA8424E
:103750000BD00D4DA84208D00C4DA84205D00C4D01
:10376000A84202D00B4DA84204D14D6922F4802218
:1037700042EA8522426003654968C164046230BD43
:10378000FF8FFFFE002C014000340140004001404B
:10379000004401400048014010B5036A046A24F067
:1037A00001040462846924F0F00444EA021423F062
:1037B0000A020A438461026210BD10B5036A046AFA
:1037C00024F010040462846923F0A00324F47044FC
:1037D00044EA023243EA01118261016210BD000035
:1037E00030B5416EB9B1026891689268C1F3426127
:1037F0000B4B520F9C5CE50003F10804A25CB5FB87
:10380000F2F2A0F86A205A5C615CD200B2FBF1F1DE
:10381000A0F8681030BD0121A0F86A10F8E7000098
:10382000D247000890F82810090706D501684A68B1
:10383000836B22F400421A434A6090F82810C907AB
:1038400006D001684A68C36A22F400321A434A600B
:1038500090F82810890706D501684A68036B22F49E
:1038600080321A434A6090F82810490706D501684B
:103870004A68436B22F480221A434A6090F8281069
:10388000C90606D501688A68C36B22F480521A43C0
:103890008A6090F82810890606D501688A68036C4A
:1038A00022F400521A438A6090F82810490611D574
:1038B00001684A68436C22F480121A434A60416CE2
:1038C000B1F5801F06D101684A68836C22F4C002FA
:1038D0001A434A6090F82810090606D501684A681C
:1038E000C06C22F4002202434A6070472DE9F8437D
:1038F00000260446C0F89060FDF7A0FB80462068D3
:1039000000684FF0200500076FF07E4713D543464F
:10391000002229042046009700F09AFC58B1216843
:1039200051E8000F20F0800041E80002002AF6D1A3
:10393000C4F8885021E020680068400722D543463B
:1039400000224FF480012046009700F081FCC8B1AE
:10395000216851E8000F20F4907041E80002002A2D
:10396000F6D12068083050E8001F21F0010140E83E
:103970000012002AF5D1C4F88C5084F8846003202A
:10398000BDE8F883C4F88850C4F88C5044F86C6FD4
:10399000666026760020F3E710B5806A0021A0F863
:1039A0005E10FEF74FFD10BD10B5026852E8001F13
:1039B00021F4907142E80013002BF6D10E4B0268FF
:1039C000083252E8001F194042E80014002CF6D1DA
:1039D000C16E012908D1016851E8002F22F01002C0
:1039E00041E80023002BF6D12021C0F88C100021E3
:1039F000C166416710BD0000FEFFFFEF10B5B0F8D3
:103A00006020D0F88C300168222B04D0886940F007
:103A10000800886110BD496A836D11401980816D6D
:103A2000891C8165B0F85E10491EA0F85E10B0F8E0
:103A30005E100029EED1026852E8001F21F4907157
:103A400042E80013002BF6D10168083151E8002F3D
:103A500022F0010241E80023002BF5D12021C0F81B
:103A60008C10002141670167154B02689A420BD008
:103A70005268120208D5036853E8002F22F08062D2
:103A800043E80024002CF6D1C26E012A02D0FEF7D2
:103A900009FF10BDC166026852E8001F21F0100145
:103AA00042E80013002BF6D10168CA69D243D2065E
:103AB00001D410220A62B0F85C10FEF773FC10BD4E
:103AC000008000402DE9F0470446B0F860600068CF
:103AD000C569D0F800A0D0F80890D4F88C1022293D
:103AE00005D0816941F008018161BDE8F087B4F833
:103AF00068704FF0000844E02068406AA16D3040D3
:103B00000880A06D801CA065B4F85E00401EA4F87B
:103B10005E002068C569690730D0E9070AD05FEA0E
:103B2000CA5107D501210162D4F8900040F001008C
:103B3000C4F89000A8070BD55FEAC97008D02168C7
:103B400002200862D4F8900040F00400C4F890000D
:103B500068070BD55FEAC97008D0216804200862A5
:103B6000D4F8900040F00200C4F89000D4F890001F
:103B700020B12046FEF766FCC4F89080B4F85E00E1
:103B800000B30FB1A806B7D4B4F85E000028ACD0DB
:103B9000B4F868108142A8D92068083050E8001FA6
:103BA00021F0805140E80012002AF5D12A486067D0
:103BB000206850E8001F41F0200140E80012002A70
:103BC000F6D192E7216851E8000F20F4807041E8B7
:103BD0000002002AF6D1214A2068083050E8001F70
:103BE000114040E80013002BF6D12020C4F88C00CF
:103BF000C4F874804046C4F87080194A2168914224
:103C00000BD04968090208D5226852E8001F21F04C
:103C1000806142E80013002BF6D1E16E012903D048
:103C20002046FEF73FFEAFE7E066216851E8000F4F
:103C300020F0100041E80002002AF6D12068C16996
:103C4000C943C90601D410210162B4F85C102046B2
:103C5000FEF7A8FB98E70000FD390008FEFFFFEF24
:103C60000080004010B5B0F86020D0F88C300168BA
:103C7000222B04D0886940F00800886110BD496A91
:103C80001140826D1170816D491C8165B0F85E1024
:103C9000491EA0F85E10B0F85E100029EED1016850
:103CA00051E8002F22F4907241E80023002BF6D156
:103CB0000168083151E8002F22F0010241E8002399
:103CC000002BF5D12021C0F88C100021416701673D
:103CD000154B02689A420BD05268120208D503684D
:103CE00053E8002F22F0806243E80024002CF6D134
:103CF000C26E012A02D0FEF7D5FD10BDC166026872
:103D000052E8001F21F0100142E80013002BF6D109
:103D10000168CA69D243D20601D410220A62B0F8FF
:103D20005C10FEF73FFB10BD008000402DE9F0471E
:103D30000446B0F860600068C569D0F800A0D0F80B
:103D40000890D4F88C10222905D0816941F008012F
:103D50008161BDE8F087B4F868704FF0000844E076
:103D60002068406AA16D30400870A06D401CA065BD
:103D7000B4F85E00401EA4F85E002068C5696907BB
:103D800030D0E9070AD05FEACA5107D501210162A4
:103D9000D4F8900040F00100C4F89000A8070BD5BB
:103DA0005FEAC97008D0216802200862D4F8900048
:103DB00040F00400C4F8900068070BD55FEAC970B2
:103DC00008D0216804200862D4F8900040F0020076
:103DD000C4F89000D4F8900020B12046FEF732FBE2
:103DE000C4F89080B4F85E0000B30FB1A806B7D451
:103DF000B4F85E000028ACD0B4F868108142A8D9AD
:103E00002068083050E8001F21F0805140E800127F
:103E1000002AF5D12A486067216851E8000F40F078
:103E2000200041E80002002AF6D192E7216851E81B
:103E3000000F20F4807041E80002002AF6D1214AE8
:103E40002068083050E8001F114040E80013002BA4
:103E5000F6D12020C4F88C00C4F874804046C4F821
:103E60007080194A216891420BD04968090208D52F
:103E7000226852E8001F21F0806142E80013002B05
:103E8000F6D1E16E012903D02046FEF70BFDAFE726
:103E9000E066206850E8001F21F0100140E80012A1
:103EA000002AF6D12068C169C943C90601D410218E
:103EB0000162B4F85C102046FEF774FA98E700003F
:103EC000653C0008FEFFFFEF008000402DE9F04157
:103ED0000446016880682269E3691043626900252D
:103EE0001A431043DFF82CC20A688B4B1A40024376
:103EF0000A6020684168E26821F440511143416042
:103F00002168A069614501D0226A10438A68834B09
:103F10001A4002438A602068C16A626A21F00F0178
:103F20001143C1627E4923687E488B420DD1D0F88F
:103F3000880010F0030006D0012855D0022842D096
:103F400003283FD152E001203DE077498B420BD15D
:103F5000D0F8880010F00C0035D0042833D00828A1
:103F600040D00C282ED141E070498B420BD1D0F8C3
:103F7000880010F0300026D0102835D0202831D00D
:103F800030281FD132E06A498B420BD1D0F888002B
:103F900010F0C00017D0402826D0802822D0C0289A
:103FA00010D123E063450DD1D0F8880010F44060B3
:103FB00009D0B0F5806F17D0B0F5006F12D0B0F512
:103FC000406F13D010205B495B4F00264FF4004236
:103FD00063453BD160B1022813D004280BD00828D8
:103FE00072D10DE00220EEE70420ECE70820EAE7BA
:103FF000FDF754FB01E0FDF775FB010001D17CE00A
:104000001146606A37F810206768B1FBF2F007EBE1
:104010004703834270D8B0EB073F6DD800230846B2
:104020001946FCF757F9090241EA106102027808C3
:10403000101871413A460023FCF74CF93F4AA0F5AD
:104040004071914258D82168C86056E0E3694FF644
:10405000EF7893422CD109284ED2DFE800F0050812
:10406000114D0D4D4D4D1000FDF718FB01E0FDF712
:1040700027FB010004D140E0FDF734FBF9E71146CE
:10408000606A37F81000B1FBF0F04100606801EBA6
:104090005001B1FBF0F0A0F1100141452CD84FF6D2
:1040A000F0710140C0F3420001432068C16024E088
:1040B000092821D2DFE800F0050912200E20202077
:1040C0001100FDF7EBFA02E016E0FDF7F9FA010046
:1040D00004D112E0FDF706FBF9E71146606A37F8F4
:1040E0001000B1FBF0F1606801EB5001B1FBF0F0A2
:1040F000A0F1100141450AD901250120A4F86A0068
:1041000024F8680F2846E6602661BDE8F08180B299
:1041100099E7000000800040F369FFCFFFF4FF1132
:1041200000380140001002400044004000480040B8
:10413000004C00400024F400BA470008FFFC0F00C8
:1041400070B58165A0F85C20A0F85E20002343676D
:1041500081684FF48056FF24B14204D10169F9B956
:1041600040F2FF1122E07F25C1B1B1F1805F1AD08A
:10417000A0F86030C0F890302221C0F88C1001689F
:10418000083151E8003F43F0010341E80034002CBE
:10419000F5D1416EB1F1005F0ED031E0016941B956
:1041A000A0F86040E6E7016919B13F21A0F860106E
:1041B000E0E7A0F86050DDE7B0F8681091421FD842
:1041C0008168B14201D10169B9B11D4941670169F5
:1041D00041B1026852E8001F41F4807142E80013C7
:1041E000002BF6D10168083151E8002F42F08052CF
:1041F00041E80023002BF5D120E012494167F1E7A7
:104200008168B14201D1016969B10F494167016912
:1042100059B1026852E8001F41F4907142E800135E
:10422000002BF6D10AE009494167026852E8001FF5
:1042300041F0200142E80013002BF6D1002070BDB0
:104240002D3D0008C53A0008653C0008FD3900080E
:104250002DE9F047994617460D4604464FF00008F1
:10426000089E33E0701C31D0FCF7E8FEA0EB09009B
:10427000B04218D8BEB120680168490726D5802D04
:1042800024D0402D22D0C169C94309070DD4082587
:1042900005622046FFF788FBC4F8905084F88480BC
:1042A0000120BDE8F0870320FBE7C069C04300059B
:1042B0000CD421684FF4006008622046FFF774FBBD
:1042C0002020C4F8900084F88480ECE72068C0695E
:1042D00035EA000004D00020B842C3D00020E0E757
:1042E0000120F9E70148FEF7AFB8000010010020F7
:1042F000FEE70907090E002804DB00F1E02080F842
:104300000014704700F00F0000F1E02080F8141D49
:10431000704700002DE9F05F6A4CDFF8ACB1002572
:10432000A078E71C694E4FF0FF3A002878D1DFF8FB
:10433000A0914FF0010899F8020001280CD187F8EC
:1043400000806069401C60610A2800DB656189F8B3
:1043500002500020FEF740FB99F8050001280CD11F
:1043600087F80180A069401CA0610A2800DBA561D4
:1043700089F805500020FEF72FFB99F80800012866
:104380000CD187F80280E069401CE0610A2800DB5C
:10439000E56189F808500020FEF71EFB99F80B1024
:1043A00001293BD1A2686169914222D1E268A169E9
:1043B00091421ED12269E16991421AD184F80280AA
:1043C00089F80B500020FEF707FBDBF8002040F2D5
:1043D000F311D162CBF80C10DBF800000A218163E5
:1043E0003068A062207840F00100207000F072F880
:1043F00014E0216A491C2162316861623168E1621E
:104400003D707D70BD70C4F814A0C4F818A0C4F845
:104410001CA089F80B500020FEF7DEFAA07820B32C
:104420003068A16A411A41F2883081421DD9207852
:1044300020F00100207000F04DF8DBF8002040F281
:10444000E731D162CBF80C10DBF800003221816338
:10445000A5703D707D70BD70C4F814A0C4F818A09C
:104460000020C4F81CA0FEF7B7FA206A032820DB5E
:10447000606A3168401A64281BD93068E16A411AC1
:1044800041F28830814214D260780028207802D02E
:1044900040F0020001E020F002002070C0B200F005
:1044A00019F8607880F00100607030686062BDE8E3
:1044B000F09F207820F002002070BDE8F05F00F04F
:1044C00009B800001000002078000020080000203B
:1044D000A401002070B50D4D044601224FF6FF7176
:1044E0002846FCF7A6FD210200222846FCF7A1FD84
:1044F000074C012204212046FCF79BFD2046BDE825
:10450000704000220421FCF794BD00000008004820
:10451000000C004810B500F017F800F089F8BDE86D
:104520001040FFF7F7BEFCF797FDFEF7DDFEFEF744
:1045300001FCFEF7E1FCFEF713FDFEF78FFC00F037
:1045400049F8FFF7E7FFFCE71FB5194C2068002882
:104550002DDD072825D1174B1A1F111F081F8DE8C5
:104560000F00031F103A14A11848FBF7AFFF1148C2
:1045700044388268016B91420DD1C268416B91420F
:1045800009D10269816B914205D1C16B8160016CD7
:10459000C160416C0161322308220C490C48FEF7CE
:1045A00093F90A49002020600860888088711FBD47
:1045B0006C00002054000020253164253164253131
:1045C000642D25316425316425316400700000209C
:1045D00010010020114810B50078FFF77BFFFEF7AF
:1045E000A3FA0020FEF7F8F90020FEF7F7FA4FF6DD
:1045F000FF70FEF707FB0A48FDF770FB042109482E
:10460000FDF7E6FD0749322009688863BDE81040E0
:10461000012205490548FEF721B9000010000020DD
:10462000C400002078000020680000201001002055
:1046300030B5334C89B0A07800283BD131A1684611
:10464000FBF7C0FE69461820FEF72CFAE51C287817
:1046500028B12FA168466269FBF7B4FE03E02FA1E1
:104660006846FBF7AFFE69464820FEF71BFA6878FC
:1046700028B12DA16846A269FBF7A4FE03E02DA195
:104680006846FBF79FFE69466020FEF70BFAA878A4
:1046900028B12BA16846E269FBF794FE03E02BA149
:1046A0006846FBF78FFE69467820FEF7FBF9A07895
:1046B000002822D028A16846FBF784FE694618200E
:1046C000FEF7F0F9274D2868C06A2749401CB1FB66
:1046D000F0F226A16846A264FBF774FE6946482002
:1046E000FEF7E0F92868826B23A16846E264FBF7D5
:1046F00069FE69466020FEF7D5F909B030BD0000BB
:104700001000002020202020202020205053440092
:10471000202020202042313A256400002020202043
:104720002042313A40000000202020202042323A2E
:1047300025640000202020202042323A4000000062
:10474000202020202042333A256400002020202011
:104750002042333A4000000020202020202020204A
:10476000535441007800002040420F0020202020B8
:1047700020463A2564487A002020202020443A250B
:104780006425250010B500290AD00878002807D034
:1047900005487844FCF74EFA002801D0002010BDEF
:1047A0000248784410BD00005A1200005212000066
:1047B0004FF04070E1EE100A704701000200040063
:1047C000060008000A000C001000200040008000D5
:1047D00000010101010307010000080402040801AF
:1047E00001010000000000000000010203040607B0
:1047F000080900000000010203040000000000009E
:1048000000000000000000000000000000000000A8
:104810000000000000000000000000000000000098
:104820000000000000000000000000008001800186
:104830008001800180018001800180018001800170
:1048400080018001800100000000800180010000E3
:104850000000000000000000000000000000CC008C
:10486000CC00CC00CC00CC00CC000000000000004C
:104870000000000000000000000000000000000038
:104880000000000000000000000000000000000028
:10489000000000000000600C600C600C3006300668
:1048A000FE1FFE1F300638071803FE1FFE1F1803E9
:1048B00018038C018C018C01000000008000E003D3
:1048C000F80F9C0E8C1C8C188C009800F801E007E7
:1048D000800E801C8C188C189C18B80CF00FE0030C
:1048E00080008000000000000000000000000000C8
:1048F0000E181B0C110C11061106110311039B015C
:104900008E01C038C06C6044604430443044184468
:10491000186C0C380000000000000000E001F003FB
:104920003807180618063003F001F000F8009C3133
:104930000E33061E061C061C063FFC73F021000009
:1049400000000000000000000000000000000C005B
:104950000C000C000C000C000C000000000000001B
:104960000000000000000000000000000000000047
:104970000000000000000000000000000002000332
:104980008001C000C00060006000300030003000D6
:104990003000300030003000300060006000C000A7
:1049A000C000800100030002000000002000600041
:1049B000C00080018001000300030006000600061D
:1049C0000006000600060006000600030003800142
:1049D0008001C00060002000000000000000000016
:1049E000000000000000C000C000D806F807E00189
:1049F0003003380700000000000000000000000045
:104A000000000000000000000000000000000000A6
:104A10000000000000008001800180018001800111
:104A2000FC3FFC3F8001800180018001800100008B
:104A30000000000000000000000000000000000076
:104A40000000000000000000000000000000000066
:104A50000000000000000000000000008001800154
:104A600000010001800000000000000000000000C4
:104A70000000000000000000000000000000000036
:104A80000000E007E0070000000000000000000058
:104A90000000000000000000000000000000000016
:104AA0000000000000000000000000000000000006
:104AB000000000000000000000000000C000C00076
:104AC000000000000000000000000000000C000CCE
:104AD00000060006000600030003000380038001B7
:104AE00080018001C000C000C000600060000000C4
:104AF000000000000000000000000000E003F007DC
:104B0000380E180C0C180C180C180C180C180C1863
:104B10000C180C180C18180C380EF007E0030000E5
:104B20000000000000000000000000000001800103
:104B3000C001F0019801880180018001800180019D
:104B400080018001800180018001800180010000DE
:104B5000000000000000000000000000E003F80F6B
:104B6000180C0C180C1800180018000C0006000394
:104B70008001C000600030001800FC1FFC1F000016
:104B8000000000000000000000000000E001F80745
:104B9000180E0C0C0C0C000C0006C003C007000C17
:104BA000001800180C180C18180CF807E003000087
:104BB000000000000000000000000000000C000EDB
:104BC000000F000F800DC00C600C600C300C180C36
:104BD0000C0CFC3FFC3F000C000C000C000C000017
:104BE000000000000000000000000000F80FF80FB7
:104BF000180018000C00EC03FC071C0E001C001829
:104C0000001800180C181C0C180EF807E003000020
:104C1000000000000000000000000000C007F00FCE
:104C2000381C181818000C00CC03EC0F3C0E1C1C90
:104C30000C180C180C18181C380EF007E0030000B4
:104C4000000000000000000000000000FC1FFC1F2E
:104C5000000C00060006000380038001C001C000B4
:104C6000E0006000600070003000300030000000A4
:104C7000000000000000000000000000E003F0075A
:104C8000380E180C180C180C3806F007F007180C22
:104C90000C180C180C180C18380CF80FE003000056
:104CA000000000000000000000000000E003F0072A
:104CB000380E1C0C0C180C180C181C1C381EF81B79
:104CC000E0190018000C000C1C0EF807F0010000A1
:104CD00000000000000000000000000000000000D4
:104CE00000000000000080018001000000000000C2
:104CF00000000000000000000000800180010000B2
:104D000000000000000000000000000000000000A3
:104D10000000000000008001800100000000000091
:104D20000000000000000000000080018001000180
:104D300000018000000000000000000000000000F2
:104D4000000000000000000000000010001C800FA8
:104D5000E003F8001800F800E003800F001C0010CA
:104D60000000000000000000000000000000000043
:104D700000000000000000000000F81F000000001C
:104D80000000F81F0000000000000000000000000C
:104D90000000000000000000000000000000000013
:104DA0000000000000000000000008003800F001D2
:104DB000C007001F0018001FC007F00138000800DE
:104DC000000000000000000000000000E003F80FF9
:104DD000180C0C180C180018000C000600038001B9
:104DE000C000C000C00000000000C000C000000003
:104DF0000000000000000000000000000000E007CC
:104E000018180420C229224A1144094409440944BB
:104E100009221113E20C024004201818E0070000D8
:104E2000000000000000000000000000800380037C
:104E3000C006C006C006600C600C30183018301870
:104E4000F83FF83F1C700C600C6006C006C0000004
:104E5000000000000000000000000000FC03FC0F48
:104E60000C0C0C180C180C180C0CFC07FC0F0C1874
:104E70000C300C300C300C300C18FC1FFC07000000
:104E8000000000000000000000000000C007F01F4C
:104E900038381C300C70066006000600060006005C
:104EA0000600060006600C701C30F01FE0070000D2
:104EB000000000000000000000000000FE03FE0FE4
:104EC000060E061806180630063006300630063084
:104ED0000630063006180618060EFE0FFE03000008
:104EE000000000000000000000000000FC3FFC3F4C
:104EF0000C000C000C000C000C00FC1FFC1F0C0034
:104F00000C000C000C000C000C00FC3FFC3F0000EF
:104F1000000000000000000000000000F83FF83F23
:104F200018001800180018001800F81FF81F1800C3
:104F300018001800180018001800180018000000C9
:104F4000000000000000000000000000E00FF83F3B
:104F50003C780E6006E007C00300030003FE03FE7A
:104F600003C007C006C00EC03CF0F83FE00F0000D1
:104F70000000000000000000000000000C300C30B9
:104F80000C300C300C300C300C30FC3FFC3F0C3043
:104F90000C300C300C300C300C300C300C3000006D
:104FA00000000000000000000000000080018001FF
:104FB00080018001800180018001800180018001E9
:104FC000800180018001800180018001800100005A
:104FD00000000000000000000000000000060006C5
:104FE0000006000600060006000600060006000691
:104FF00000060006180618063807F003E001000056
:10500000000000000000000000000000063006184C
:10501000060C060606038601C60066007600DE0062
:105020008E0106030606060C061806300660000010
:105030000000000000000000000000001800180040
:1050400018001800180018001800180018001800A0
:1050500018001800180018001800F81FF81F0000AA
:105060000000000000000000000000000EE01EF044
:105070001EF01EF036D836D836D836D866CC66CC78
:1050800066CCC6C6C6C6C6C6C6C686C386C300002C
:105090000000000000000000000000000C301C3088
:1050A0003C303C306C306C30CC30CC308C310C33FC
:1050B0000C330C360C360C3C0C3C0C380C3000001D
:1050C000000000000000000000000000E007F81FE2
:1050D0001C380E70066003C003C003C003C003C0C9
:1050E00003C003C006600E701C38F81FE007000004
:1050F000000000000000000000000000FC0FFC1F8A
:105100000C380C300C300C300C300C18FC1FFC0729
:105110000C000C000C000C000C000C000C0000003B
:10512000000000000000000000000000E007F81F81
:105130001C380E70066003E003C003C003C003C048
:1051400003C007E006630E3F1C3CF83FE0F700C0D9
:10515000000000000000000000000000FE0FFE1F25
:1051600006380630063006300638FE1FFE070603F6
:105170000606060C06180618063006300660000003
:10518000000000000000000000000000E003F80F35
:105190001C0C0C180C180C001C00F803E00F001E6F
:1051A0000038063006300E301C1CF80FE0070000F7
:1051B000000000000000000000000000FE7FFE7FF5
:1051C00080018001800180018001800180018001D7
:1051D0008001800180018001800180018001000048
:1051E0000000000000000000000000000C300C3047
:1051F0000C300C300C300C300C300C300C300C30CF
:105200000C300C300C300C301818F81FE007000080
:1052100000000000000000000000000003600630F5
:10522000063006300C180C180C18180C180C380E18
:1052300030063006700760036003C001C001000043
:105240000000000000000000000000000360C361D7
:10525000C361C36166336633663366336633663370
:105260006C1B6C1B6C1B2C1A3C1E380E380E00007D
:105270000000000000000000000000000FE00C70C3
:1052800018303018700C600EC00780038003C00314
:10529000E006700C301C18180C300E6007E000009F
:1052A00000000000000000000000000003C00660D5
:1052B0000C301C383818300C6006E007C003800141
:1052C0008001800180018001800180018001000057
:1052D000000000000000000000000000FC7FFC7FD8
:1052E000006000300018000C000600038001C000C0
:1052F0006000300018000C000600FE7FFE7F0000FA
:10530000000000000000000000000000E003E003D7
:10531000600060006000600060006000600060008D
:10532000600060006000600060006000600060007D
:1053300060006000E003E003000000003000300087
:10534000600060006000C000C000C000C0018001BB
:105350008001800100030003000300060006000036
:10536000000000000000000000000000E003E00377
:105370000003000300030003000300030003000315
:105380000003000300030003000300030003000305
:1053900000030003E003E003000000000000C00180
:1053A000C00160036003600330063006180C180C5F
:1053B00000000000000000000000000000000000ED
:1053C00000000000000000000000000000000000DD
:1053D00000000000000000000000000000000000CD
:1053E000000000000000000000000000FFFFFFFFC1
:1053F0000000000000000000000000000C000C0095
:105400000C000C000C000C0000000000000000006C
:10541000000000000000000000000000000000008C
:10542000000000000000000000000000000000007C
:10543000000000000000F003F8071C0C0C0C000F2B
:10544000F00FF80C0C0C0C0C1C0FF80FF0180000EF
:10545000000000000000000000000000180018001C
:10546000180018001800D803F80F380C181818186E
:105470001818181818181818380CF80FD803000046
:10548000000000000000000000000000000000001C
:10549000000000000000C003F007300E180C1800D8
:1054A000180018001800180C300EF007C003000098
:1054B00000000000000000000000000000180018BC
:1054C000001800180018C01BF01F301C18181818FE
:1054D0001818181818181818301CF01FC01B0000D6
:1054E00000000000000000000000000000000000BC
:1054F000000000000000C003F00F300C1818F81F67
:10550000F81F180018003818301CF00FC0070000F2
:10551000000000000000000000000000800FC00F2D
:10552000C000C000C000F007F007C000C000C0000D
:10553000C000C000C000C000C000C000C00000002B
:10554000000000000000000000000000000000005B
:10555000000000000000E00DF80F180E0C0C0C0C01
:105560000C0C0C0C0C0C0C0C180EF80FE00D000CB5
:105570000C0C1C06F807F0010000000018001800D1
:10558000180018001800D807F80F381C1818181839
:1055900018181818181818181818181818180000BB
:1055A000000000000000000000000000C000C0007B
:1055B000000000000000C000C000C000C000C0002B
:1055C000C000C000C000C000C000C000C00000009B
:1055D000000000000000000000000000C000C0004B
:1055E000000000000000C000C000C000C000C000FB
:1055F000C000C000C000C000C000C000C000C000AB
:10560000C000C000F8007800000000000C000C0092
:105610000C000C000C000C0C0C060C038C01CC00D4
:105620006C00FC009C018C030C030C060C0C0000AD
:10563000000000000000000000000000C000C000EA
:10564000C000C000C000C000C000C000C000C0005A
:10565000C000C000C000C000C000C000C00000000A
:10566000000000000000000000000000000000003A
:105670000000000000007C3CFF7EC7E383C183C1C3
:1056800083C183C183C183C183C183C183C100003E
:10569000000000000000000000000000000000000A
:1056A0000000000000009807F80F381C18181818A0
:1056B000181818181818181818181818181800009A
:1056C00000000000000000000000000000000000DA
:1056D000000000000000C003F00F300C181818186C
:1056E0001818181818181818300CF00FC0030000FC
:1056F00000000000000000000000000000000000AA
:10570000000000000000D803F80F380C1818181813
:105710001818181818181818380CF80FD80318008B
:105720001800180018001800000000000000000019
:10573000000000000000C01BF01F301C18181818D3
:105740001818181818181818301CF01FC01B00184B
:1057500000180018001800180000000000000000E9
:10576000000000000000B007F003700030003000BF
:1057700030003000300030003000300030000000D9
:105780000000000000000000000000000000000019
:10579000000000000000E003F003380E180C380091
:1057A000F003C007000C180C380EF007E0030000EF
:1057B0000000000000000000000000000000800069
:1057C000C000C000C000F007F007C000C000C0006B
:1057D000C000C000C000C000C000C00780070000BB
:1057E00000000000000000000000000000000000B9
:1057F00000000000000018181818181818181818B9
:105800001818181818181818381CF01FE01900007C
:105810000000000000000000000000000000000088
:105820000000000000000C18180C180C180C3006B2
:1058300030063006600360036003C001C001000051
:105840000000000000000000000000000000000058
:10585000000000000000C141C141C3616363636394
:1058600063633636363636361C1C1C1C1C1C000086
:105870000000000000000000000000000000000028
:105880000000000000001C38381C300C600660036B
:105890006003600360036006300C381C1C38000095
:1058A00000000000000000000000000000000000F8
:1058B0000000000000001830301830187018600C1C
:1058C000600CE00CC006C0068003800380038001EA
:1058D0008001C001F0007000000000000000000026
:1058E000000000000000FC1FFC1F000C000600036D
:1058F0008001C000600030001800FC1FFC1F000089
:105900000000000000000000000000000003800113
:10591000C000C000C000C000C000C0006000600047
:10592000300060004000C000C000C000C000C000E7
:10593000C000800100030000000000008001800121
:10594000800180018001800180018001800180014F
:10595000800180018001800180018001800180013F
:105960008001800180018001000000006000C00013
:10597000C0018001800180018001800100030003DB
:105980000006000300018001800180018001800188
:105990008001C00060000000000000000000000066
:1059A00000000000000000000000F010F81F080FC9
:1059B00000000000000000000000000000000000E7
:1059C000000000000000000000000000FC5A000879
:1059D000000000207800000014020008745B00083A
:1059E0007800002098070000300200081001000035
:1059F00043000000F8FFFFFF0040404040404040AF
:105A00004040414141414140404040404040404091
:105A10004040404040404040400502020202020235
:105A20000202020202020202022020202020202084
:105A30002020200202020202020290909090909098
:105A40001010101010101010101010101010101056
:105A500010101010020202020202888888888888CA
:105A600008080808080808080808080808080808B6
:105A700008080808020202024000000000000000BE
:105A80000000000000000000000000000000000016
:105A90000000000000000000000000000000000006
:105AA00000000000000000000000000000000000F6
:105AB00000000000000000000000000000000000E6
:105AC00000000000000000000000000000000000D6
:105AD00000000000000000000000000000000000C6
